:100000000C9434000C9451000C9451000C94510049
:100010000C94A4050C9451000C9451000C945100C4
:100020000C9451000C9451000C9451000C9451000C
:100030000C9451000C9451000C9451000C945100FC
:100040000C94E3050C9451000C9451000C94510055
:100050000C9451000C9451000C9451000C945100DC
:100060000C9451000C94510011241FBECFEFD8E026
:10007000DEBFCDBF11E0A0E0B1E0E4E5FEE002C0EC
:1000800005900D92A832B107D9F711E0A8E2B1E0CE
:1000900001C01D92A835B107E1F70E9453000C94EE
:1000A00028070C940000CF93DF93549A5C980E9429
:1000B000F7060E949D0580E091E00E941604CCE2C4
:1000C000D1E00E942E0690E0A0E0B0E0BC01CD019E
:1000D0000E949D040E94120690E0A0E0B0E0BC01E6
:1000E000CD010E949D040E94F60590E0A0E0B0E0E2
:1000F000BC01CD010E9498040E945806882319F083
:100100008EE091E002C081E191E00E94160488E84F
:1001100093E1FE013197F1F7019799F2FACF10922E
:10012000290110922A01089580E58A95F1F7089532
:1001300080EA8A95F1F7089588E08A95F1F70895A5
:10014000813011F43D9A08953D980895813011F45D
:10015000459A089545980895813019F4459A3D9837
:10016000089545983D9A089586B190E025E09695CA
:1001700087952A95E1F781700895813011F43C9AB2
:1001800008953C980895813011F4449A0895449854
:100190000895813019F4449A3C98089544983C9A03
:1001A000089586B190E034E0969587953A95E1F709
:1001B000817008953D9880E00E94AC0008953C98BD
:1001C00080E00E94C90008953D9A3C9881E00E9419
:1001D000AC0081E00E94C90008951F9381E00E9455
:1001E000AC0081E00E94C90010E5812F8A95F1F7EB
:1001F00080E00E94C900812F8A95F1F780E00E947B
:10020000AC001A95F1F71F9108951F9380E00E94AA
:10021000AC0080E00E94C90010E5812F8A95F1F7BB
:1002200081E00E94AC00812F8A95F1F781E00E9465
:10023000C9001A95F1F71F910895EF92FF920F935D
:100240001F93082F10E050E5F52E48E0E42E07FF3D
:1002500002C081E001C080E00E94C9008F2D8A9514
:10026000F1F781E00E94AC008F2D8A95F1F780E0D4
:100270000E94AC008E2D8A95F1F71F5F183011F0A7
:10028000000FE5CF1F910F91FF90EF900895FF921F
:100290000F931F9381E00E94C90000E010E060E529
:1002A000F62E110F8F2D8A95F1F781E00E94AC0098
:1002B000349911608F2D8A95F1F780E00E94AC008F
:1002C0000F5F083071F780E58A95F1F781E00E94B1
:1002D000AC00812F1F910F91FF9008951F9380E034
:1002E0000E94C90010E5812F8A95F1F781E00E94F4
:1002F000AC001A95F1F780E00E94AC001F910895C0
:100300001F9381E00E94C90010E5812F8A95F1F7C3
:1003100081E00E94AC001A95F1F780E00E94AC00E9
:100320001F9108950F931F9381E00E94C90000E57B
:10033000802F8A95F1F781E00E94AC0016B10A95F2
:10034000F1F780E00E94AC0088E08A95F1F7129501
:100350001F701095812F81701F910F9108951F9329
:10036000182F0E94ED00812F0E941D010E94920112
:10037000182F0E940501812F1F9108951F9310E0EF
:10038000812F0E94AF01813011F4812F03C01F5FC4
:100390001F3FB1F71F910895DF92EF92FF920F93E5
:1003A0001F93182F0E94ED00809129010E941D01CA
:1003B0000E949201E82E812F0E941D010E9492014D
:1003C000F82E0E9405010E94ED0080912A010E94F2
:1003D0001D010E949201182F0E944701D82E0E94F1
:1003E0009201082F0E940501FF0C110F110F1F2908
:1003F0001E29000F000F000F012B073011F08FEFA7
:1004000001C08D2D1F910F91FF90EF90DF90089507
:100410000F931F93182F062F0E94ED008091290142
:100420000E941D010E949201812F0E941D010E94C5
:100430009201802F0E941D010E9492010E940501DD
:100440001F910F9108951092290110922A010E9484
:10045000E40088EE93E02CE231E0F9013197F1F706
:100460000197D9F70E94BE01809329018F5F809385
:100470002A01089510922B0110922C0181E08093A3
:100480002D0180E090E0FC01E55DFE4F13820196B6
:1004900080329105C1F710924E01EFE4F1E0119224
:1004A00081E0E735F807D9F71082089514BC15BC30
:1004B00010926E008FEF85BBE8E6F0E080818260ED
:1004C0008083ECE6F0E0808180648083D99A789420
:1004D00008958FEF85BBEEE6F0E0108288EC86BDD4
:1004E00084E085BD81E085BB8083089510926E0015
:1004F00015BC16BC0895559A5D9A3E98469A089583
:100500005D9A08955D980895813011F45D9A08957B
:100510005D98089586B190E026E0969587952A9596
:10052000E1F7817008959C0116BC81E085BD86B518
:100530008233E8F316BC86B590E082179307D8F3B0
:1005400015BC089580912201909123010E9493028D
:10055000089580912401909125010E9493020895AD
:1005600080912601909127010E9493020895DF92C5
:10057000EF92FF920F931F93DF93CF93CDB7DEB728
:100580002A970FB6F894DEBF0FBECDBFFE0131969D
:100590009AE0DF011D929A95E9F791E09A87FE01B2
:1005A000329620E030E0482F50E061E0CA01022E90
:1005B00002C0959587950A94E2F780FF02C0608398
:1005C00001C010822F5F3F4F31962830310571F7FF
:1005D000DFB6F8948E010F5F1F4F3BE0E32EF12C46
:1005E000EC0EFD1EF8018081813011F45D9A01C08E
:1005F0005D980E94A2020F5F1F4F0E151F0591F715
:10060000DFBE2A960FB6F894DEBF0FBECDBFCF91E6
:10061000DF911F910F91FF90EF90DF900895FF926F
:100620000F931F93369B21C082E017C00E94A9023E
:1006300036990068173009F006951F5F1830B1F73A
:100640000E94A90286B1F6FC07C086FF05C0009390
:100650002C0110922B0103C081E080932B0180912B
:100660002C011F910F91FF9008950E94B002F6B0E7
:1006700000E010E0DBCF80912C01089510922C0156
:10068000089580932C010895BF92CF92DF92EF924C
:10069000FF920F931F93CF93DF937B018C018FEF1A
:1006A000E816F1040105110509F030F4C8E0D0E0C6
:1006B00062E0C62ED12C14C080E0E81680E0F80677
:1006C00081E0080780E0180730F0C0E2D0E058E091
:1006D000C52ED12C05C0C0E1D0E044E0C42ED12C01
:1006E00080E30E94B70288E70E94B702BB2417C0CC
:1006F0002497D801C7010C2E04C0B695A7959795ED
:1007000087950A94D2F790E08F7090708A309105A7
:1007100010F0C79601C0C0960E94B702B3948B2D0B
:1007200090E08C159D0520F3DF91CF911F910F91E3
:10073000FF90EF90DF90CF90BF900895AF92BF925F
:10074000CF92DF92EF92FF920F931F93CF93DF939D
:100750007B018C016F3F71058105910509F018F44B
:10076000F7E0DF2E0DC0603030E0730731E0830723
:1007700030E0930718F0EFE1DE2E02C07FE0D72EC5
:1007800080E30E94B70282E60E94B702C0E0D0E098
:10079000CD2CDD2456010894A11CB11CC6018C1B74
:1007A0009D0BA801970104C056954795379527954D
:1007B0008A95D2F7DA01C90181709070892B11F006
:1007C00081E301C080E30E94B7022196CA15DB05D0
:1007D00029F7DF91CF911F910F91FF90EF90DF905C
:1007E000CF90BF90AF9008958DE00E94B7028AE04D
:1007F0000E94B702089580E20E94B70208958CE239
:100800000E94B70208951F93CF93DF93EC0110E08D
:1008100003C00E94B7021F5FFE01E10FF11D80813E
:100820008823B9F7DF91CF911F9108950E940304A7
:100830000E94F40308950E9403040E94FB0308959C
:100840000E9403040E94FF030895BF92CF92DF929B
:10085000EF92FF920F931F936B017C01611571055D
:100860008105910531F410924F0181E08093570189
:1008700023C0BB240B2D10E0055D1E4FC701B60140
:100880002AE030E040E050E00E940607F80164A34F
:10089000C701B6012AE030E040E050E00E940607C0
:1008A000C901DA016C017D01B394C114D104E104E2
:1008B000F10401F7B09257011F910F91FF90EF9053
:1008C000DF90CF90BF9008951F931091570109C0FA
:1008D0001150E12FF0E0E55DFE4F84A1805D0E94A4
:1008E000B7021123A9F71F910895EF92FF920F937A
:1008F0001F937B018C0197FF0BC08DE20E94B70212
:1009000010950095F094E094E11CF11C011D111D5F
:10091000C801B7010E9425040E9464041F910F9131
:10092000FF90EF9008950E9475040E94F4030895CB
:100930000E9475040E94FB0308950E94750484E1DF
:1009400091E00E94030408950E9444030E94F4036E
:1009500008950E9444030E94FB0308950E944403EB
:1009600084E191E00E94030408950E949E030E9486
:10097000F40308950E949E030E94FB0308950E94C1
:100980009E0384E191E00E9403040895EF92FF9298
:100990000F931F937A018B010E9403040E94FB03B3
:1009A000C801B7010E9493041F910F91FF90EF902F
:1009B0000895EF92FF920F931F937A018B010E948B
:1009C00003040E94FB03C801B7010E9498041F9111
:1009D0000F91FF90EF900895EF92FF920F931F9366
:1009E0007A018B010E9403040E94FB03C801B70136
:1009F0000E949D041F910F91FF90EF900895EF9238
:100A0000FF920F931F937A018B010E9403040E94AF
:100A1000FB03C801B7010E94A4041F910F91FF902E
:100A2000EF900895EF92FF920F931F937A018B013D
:100A30000E9403040E94FB03C801B7010E94A9049D
:100A40001F910F91FF90EF900895EF92FF920F93F7
:100A50001F937A018B010E9403040E94FB03C801CB
:100A6000B7010E94AE041F910F91FF90EF9008957F
:100A7000EF92FF920F931F937A018B010E94030460
:100A80000E94FB03C801B7010E94B5041F910F919A
:100A9000FF90EF900895EF92FF920F931F937A01CA
:100AA0008B010E9403040E94FB03C801B7010E944E
:100AB000BA041F910F91FF90EF900895EF92FF926B
:100AC0000F931F937A018B010E9403040E94FB0382
:100AD000C801B7010E94BF041F910F91FF90EF90D2
:100AE0000895EBE2F1E0E80FF11D83810895809114
:100AF0004E01089580E090E0FC01E55DFE4F138219
:100B0000019680329105C1F710924E0108958091AF
:100B10002D01089580912D01882311F090E008C0E7
:100B200080914E0190E0882309F491E081E09827BC
:100B3000892F089580914E0108950E943A020E94E3
:100B400056020E947B0208951F920F920FB60F92D9
:100B500011242F933F934F935F936F937F938F93C2
:100B60009F93AF93BF93EF93FF9381E080932D0109
:100B70000E940F03982F80912B01882399F4E09114
:100B80004E01F0E0E55DFE4F938380914E018F5F53
:100B900080934E0180914E01813210F010924E01EF
:100BA0000E946902FF91EF91BF91AF919F918F9148
:100BB0007F916F915F914F913F912F910F900FBE59
:100BC0000F901F9018951F920F920FB60F9211243D
:100BD00010926E0015BC16BC10922D010F900FBE26
:100BE0000F901F90189580912801089580E00E9431
:100BF000CC01282F30E02077307094E03595279590
:100C00009A95E1F79AE0929F902D11248F70980F9A
:100C10009C3318F090E086E001C080E080932801CA
:100C2000892F089581E00E94CC01282F30E02077A1
:100C3000307044E0359527954A95E1F79AE0929F08
:100C4000902D11248F70980F9C3318F090E085E060
:100C500001C080E080932801892F089582E00E94DE
:100C6000CC01282F30E0982F9F7086FF11C0207193
:100C7000307064E0359527956A95E1F78AE0829FA8
:100C8000802D1124890F8D3078F080E094E00DC024
:100C90002073307054E0359527955A95E1F78AE036
:100CA000829F802D1124890F90E090932801089550
:100CB00082E00E94CC0190E075E0969587957A9548
:100CC000E1F781700895FF920F931F93182F062F5D
:100CD000F42E82E00E94CC01382F3076812F6AE01A
:100CE0000E94FA06282F812F0E94FA0636FF0BC0B9
:100CF0001D3018F011E040E00BC0422F4295407FBC
:100D0000492B432B04C0422F4295407F492B10E0D2
:100D10000C3318F012E000E010C0802F6AE00E944F
:100D2000FA06282F30E0F4E0220F331FFA95E1F79E
:100D3000802F0E94FA06092F022B8BE38F1510F4E7
:100D400013E01DC01123D9F482E0642F0E94080231
:100D500081E0602F0E9408028F2D6AE00E94FA064F
:100D6000282F30E0E4E0220F331FEA95E1F78F2DC2
:100D70000E94FA06922B80E0692F0E9408021093CD
:100D800028011F910F91FF90089582E060E60E9474
:100D90000802089582E060E40E940802089582E05B
:100DA00060E00E9408020895EF92FF920F931F9354
:100DB000182FF62EE42E222319F482E060E00BC0F7
:100DC000213059F4002319F482E060E404C00130BA
:100DD00021F482E060E60E940802812F6F2D4E2DE3
:100DE0000E9463061F910F91FF90EF9008950E945B
:100DF00023020895991B79E004C0991F961708F003
:100E0000961B881F7A95C9F780950895A1E21A2E3E
:100E1000AA1BBB1BFD010DC0AA1FBB1FEE1FFF1F9E
:100E2000A217B307E407F50720F0A21BB30BE40BEE
:100E3000F50B661F771F881F991F1A9469F7609535
:100E40007095809590959B01AC01BD01CF010895EF
:040E5000F894FFCF44
:100E54004465627567205374617274656400504D13
:100E640000414D002C00CE049C044E024E023A0276
:080E7400E600C800D2001400E2
:00000001FF
