:100000000C9434000C9451000C9451000C94510049
:100010000C94C9050C9451000C9451000C9451009F
:100020000C9451000C9451000C9451000C9451000C
:100030000C9451000C9451000C9451000C945100FC
:100040000C9408060C9451000C9451000C9451002F
:100050000C9451000C9451000C9451000C945100DC
:100060000C9451000C94510011241FBECFEFD8E026
:10007000DEBFCDBF11E0A0E0B1E0E6EDFFE002C0E1
:1000800005900D92A832B107D9F711E0A8E2B1E0CE
:1000900001C01D92A835B107E1F70E9453000C94EE
:1000A000E9070C940000CF93DF93549A5C980E9468
:1000B000B6060E94C20580E091E00E943B04CCE2BB
:1000C000D1E00E94290690E0A0E0B0E0BC01CD01A3
:1000D0000E94C2040E943F0690E0A0E0B0E0BC0194
:1000E000CD010E94C2040E94460690E0A0E0B0E06C
:1000F000BC01CD010E94C2040E944D0690E0A0E028
:10010000B0E0BC01CD010E94C2040E94540690E000
:10011000A0E0B0E0BC01CD010E94C2040E947E06B6
:1001200090E0A0E0B0E0BC01CD010E94C2040E94BA
:100130009A0690E0A0E0B0E0BC01CD010E94BD04B1
:100140000E941B06882319F08EE091E002C081E135
:1001500091E00E943B0488E893E1FE013197F1F7BA
:10016000019709F4AECFF9CF1092290110922A011C
:10017000089580E58A95F1F7089580EA8A95F1F768
:10018000089588E08A95F1F70895813011F43D9A39
:1001900008953D980895813011F4459A0895459841
:1001A0000895813019F4459A3D98089545983D9AEF
:1001B000089586B190E025E0969587952A95E1F718
:1001C00081700895813011F43C9A08953C98089507
:1001D000813011F4449A089544980895813019F4B7
:1001E000449A3C98089544983C9A089586B190E0CA
:1001F00034E0969587953A95E1F7817008953D989A
:1002000080E00E94D10008953C9880E00E94EE00BA
:1002100008953D9A3C9881E00E94D10081E00E94BF
:10022000EE0008951F9381E00E94D10081E00E94BA
:10023000EE0010E5812F8A95F1F780E00E94EE0034
:10024000812F8A95F1F780E00E94D1001A95F1F78D
:100250001F9108951F9380E00E94D10080E00E94CA
:10026000EE0010E5812F8A95F1F781E00E94D10020
:10027000812F8A95F1F781E00E94EE001A95F1F73F
:100280001F910895EF92FF920F931F93082F10E094
:1002900050E5F52E48E0E42E07FF02C081E001C0E2
:1002A00080E00E94EE008F2D8A95F1F781E00E9498
:1002B000D1008F2D8A95F1F780E00E94D1008E2D1C
:1002C0008A95F1F71F5F183011F0000FE5CF1F91ED
:1002D0000F91FF90EF900895FF920F931F9381E08D
:1002E0000E94EE0000E010E060E5F62E110F8F2D69
:1002F0008A95F1F781E00E94D100349911608F2D29
:100300008A95F1F780E00E94D1000F5F083071F705
:1003100080E58A95F1F781E00E94D100812F1F913D
:100320000F91FF9008951F9380E00E94EE0010E56A
:10033000812F8A95F1F781E00E94D1001A95F1F79B
:1003400080E00E94D1001F9108951F9381E00E94D8
:10035000EE0010E5812F8A95F1F781E00E94D1002F
:100360001A95F1F780E00E94D1001F9108950F9334
:100370001F9381E00E94EE0000E5802F8A95F1F73F
:1003800081E00E94D10016B10A95F1F780E00E9449
:10039000D10088E08A95F1F712951F701095812F92
:1003A00081701F910F9108951F93182F0E941201C1
:1003B000812F0E9442010E94B701182F0E942A013A
:1003C000812F1F9108951F9310E0812F0E94D40167
:1003D000813011F4812F03C01F5F1F3FB1F71F91C0
:1003E0000895DF92EF92FF920F931F93182F0E94B0
:1003F0001201809129010E9442010E94B701E82E5A
:10040000812F0E9442010E94B701F82E0E942A010A
:100410000E94120180912A010E9442010E94B701AC
:10042000182F0E946C01D82E0E94B701082F0E943D
:100430002A01FF0C110F110F1F291E29000F000F99
:10044000000F012B073011F08FEF01C08D2D1F9190
:100450000F91FF90EF90DF9008950F931F93182F47
:10046000062F0E941201809129010E9442010E94E0
:10047000B701812F0E9442010E94B701802F0E9484
:1004800042010E94B7010E942A011F910F91089515
:100490001092290110922A010E94090188EE93E02E
:1004A0002CE231E0F9013197F1F70197D9F70E9479
:1004B000E301809329018F5F80932A0108951092B0
:1004C0002B0110922C0181E080932D0180E090E0BF
:1004D000FC01E55DFE4F1382019680329105C1F764
:1004E00010924E01EFE4F1E0119281E0E735F80758
:1004F000D9F71082089514BC15BC10926E008FEFCE
:1005000085BBE8E6F0E0808182608083ECE6F0E085
:10051000808180648083D99A789408958FEF85BB19
:10052000EEE6F0E0108288EC86BD84E085BD81E0D7
:1005300085BB8083089510926E0015BC16BC08958B
:10054000559A5D9A3E98469A08955D9A08955D98E9
:100550000895813011F45D9A08955D98089586B1EB
:1005600090E026E0969587952A95E1F781700895A9
:100570009C0116BC81E085BD86B58233E8F316BCCC
:1005800086B590E082179307D8F315BC0895809143
:100590002201909123010E94B802089580912401C4
:1005A000909125010E94B8020895809126019091B2
:1005B00027010E94B8020895DF92EF92FF920F93F5
:1005C0001F93DF93CF93CDB7DEB72A970FB6F8947A
:1005D000DEBF0FBECDBFFE0131969AE0DF011D9256
:1005E0009A95E9F791E09A87FE01329620E030E093
:1005F000482F50E061E0CA01022E02C09595879510
:100600000A94E2F780FF02C0608301C010822F5F6E
:100610003F4F31962830310571F7DFB6F8948E01DF
:100620000F5F1F4F3BE0E32EF12CEC0EFD1EF80197
:100630008081813011F45D9A01C05D980E94C702EB
:100640000F5F1F4F0E151F0591F7DFBE2A960FB6DD
:10065000F894DEBF0FBECDBFCF91DF911F910F91F8
:10066000FF90EF90DF900895FF920F931F93369BBA
:1006700021C082E017C00E94CE0236990068173070
:1006800009F006951F5F1830B1F70E94CE0286B1BF
:10069000F6FC07C086FF05C000932C0110922B01C9
:1006A00003C081E080932B0180912C011F910F9159
:1006B000FF9008950E94D502F6B000E010E0DBCF75
:1006C00080912C01089510922C01089580932C01A3
:1006D0000895BF92CF92DF92EF92FF920F931F93F4
:1006E000CF93DF937B018C018FEFE816F1040105B6
:1006F000110509F030F4C8E0D0E062E0C62ED12C3C
:1007000014C080E0E81680E0F80681E0080780E089
:10071000180730F0C0E2D0E058E0C52ED12C05C05B
:10072000C0E1D0E044E0C42ED12C80E30E94DC0282
:1007300088E70E94DC02BB2417C02497D801C701B8
:100740000C2E04C0B695A795979587950A94D2F775
:1007500090E08F7090708A30910510F0C79601C0BC
:10076000C0960E94DC02B3948B2D90E08C159D0501
:1007700020F3DF91CF911F910F91FF90EF90DF90C9
:10078000CF90BF900895AF92BF92CF92DF92EF9239
:10079000FF920F931F93CF93DF937B018C016F3FE9
:1007A00071058105910509F018F4F7E0DF2E0DC001
:1007B000603030E0730731E0830730E0930718F0D2
:1007C000EFE1DE2E02C07FE0D72E80E30E94DC0244
:1007D00082E60E94DC02C0E0D0E0CD2CDD24560190
:1007E0000894A11CB11CC6018C1B9D0BA80197018C
:1007F00004C056954795379527958A95D2F7DA0123
:10080000C90181709070892B11F081E301C080E3F0
:100810000E94DC022196CA15DB0529F7DF91CF91F2
:100820001F910F91FF90EF90DF90CF90BF90AF900E
:1008300008958DE00E94DC028AE00E94DC020895A7
:1008400080E20E94DC0208958CE20E94DC0208959E
:100850001F93CF93DF93EC0110E003C00E94DC02F2
:100860001F5FFE01E10FF11D80818823B9F7DF9141
:10087000CF911F9108950E9428040E9419040895A1
:100880000E9428040E94200408950E9428040E94C7
:1008900024040895BF92CF92DF92EF92FF920F93BC
:1008A0001F936B017C01611571058105910531F480
:1008B00010924F0181E08093570123C0BB240B2D80
:1008C00010E0055D1E4FC701B6012AE030E040E0B0
:1008D00050E00E94C707F80164A3C701B6012AE0EF
:1008E00030E040E050E00E94C707C901DA016C0126
:1008F0007D01B394C114D104E104F10401F7B09275
:1009000057011F910F91FF90EF90DF90CF90BF9014
:1009100008951F931091570109C01150E12FF0E085
:10092000E55DFE4F84A1805D0E94DC021123A9F7E2
:100930001F910895EF92FF920F931F937B018C01FB
:1009400097FF0BC08DE20E94DC0210950095F09499
:10095000E094E11CF11C011D111DC801B7010E94AA
:100960004A040E9489041F910F91FF90EF9008950F
:100970000E949A040E94190408950E949A040E94F9
:10098000200408950E949A0484E191E00E942804C2
:1009900008950E9469030E94190408950E94690342
:1009A0000E94200408950E94690384E191E00E945E
:1009B000280408950E94C3030E94190408950E9408
:1009C000C3030E94200408950E94C30384E191E0C0
:1009D0000E9428040895EF92FF920F931F937A01CB
:1009E0008B010E9428040E942004C801B7010E94C4
:1009F000B8041F910F91FF90EF900895EF92FF922E
:100A00000F931F937A018B010E9428040E942004F7
:100A1000C801B7010E94BD041F910F91FF90EF9094
:100A20000895EF92FF920F931F937A018B010E941A
:100A300028040E942004C801B7010E94C2041F912B
:100A40000F91FF90EF900895EF92FF920F931F93F5
:100A50007A018B010E9428040E942004C801B7017A
:100A60000E94C9041F910F91FF90EF900895EF929B
:100A7000FF920F931F937A018B010E9428040E941A
:100A80002004C801B7010E94CE041F910F91FF906E
:100A9000EF900895EF92FF920F931F937A018B01CD
:100AA0000E9428040E942004C801B7010E94D304B8
:100AB0001F910F91FF90EF900895EF92FF920F9387
:100AC0001F937A018B010E9428040E942004C80110
:100AD000B7010E94DA041F910F91FF90EF900895E3
:100AE000EF92FF920F931F937A018B010E942804CB
:100AF0000E942004C801B7010E94DF041F910F91DA
:100B0000FF90EF900895EF92FF920F931F937A0159
:100B10008B010E9428040E942004C801B7010E9492
:100B2000E4041F910F91FF90EF900895EBE2F1E044
:100B3000E80FF11D8381089580914E01089580E0B2
:100B400090E0FC01E55DFE4F138201968032910535
:100B5000C1F710924E01089580912D010895809162
:100B60002D01882311F090E008C080914E0190E0A3
:100B7000882309F491E081E09827892F08958091D6
:100B80004E0108950E945F020E947B020E94A00213
:100B900008951F920F920FB60F9211242F933F9337
:100BA0004F935F936F937F938F939F93AF93BF9375
:100BB000EF93FF9381E080932D010E943403982FDF
:100BC00080912B01882399F4E0914E01F0E0E55DDE
:100BD000FE4F938380914E018F5F80934E018091F1
:100BE0004E01813210F010924E010E948E02FF9150
:100BF000EF91BF91AF919F918F917F916F915F9195
:100C00004F913F912F910F900FBE0F901F9018950D
:100C10001F920F920FB60F92112410926E0015BC06
:100C200016BC10922D010F900FBE0F901F901895BB
:100C300080912801089582E00E94F10190E025E072
:100C4000969587952A95E1F7817008950E94F101A4
:100C5000089586E00E94F101282F22952F709AE0D6
:100C6000299F202D11248F70280F243618F020E0A2
:100C700087E101C080E080932801822F089585E0FC
:100C80000E94F101109228018F70089584E00E9463
:100C9000F101109228018F70089583E00E94F10104
:100CA000109228018770089582E00E94F101282F98
:100CB00030E0982F9F7086FF11C02071307054E093
:100CC000359527955A95E1F78AE0829F802D11246A
:100CD000890F8D3078F080E093E10DC02073307083
:100CE00044E0359527954A95E1F78AE0829F802D6B
:100CF0001124890F90E090932801089581E00E94CB
:100D0000F101282F30E02077307064E03595279589
:100D10006A95E1F79AE0929F902D11248F70980FB9
:100D20009C3318F090E082E101C080E080932801BC
:100D3000892F089580E00E94F101282F30E020776C
:100D4000307074E0359527957A95E1F79AE0929F97
:100D5000902D11248F70980F9C3318F090E081E152
:100D600001C080E080932801892F08950E944802E5
:100D700008950E942D020895FF920F931F93982FBC
:100D8000562F8150873018F004E0FF2402C0F92E5E
:100D900000E0852F6AE00E94BB07E92F852F0E94A3
:100DA000BB079AE0899FC0011124E80F413061F030
:100DB000433051F0453041F0473031F0483021F0B8
:100DC0004A3011F04C3021F4852F81508F31D0F012
:100DD000443031F0463021F0493011F04B3021F4ED
:100DE000852F81508E3170F0423071F4C9018370CB
:100DF0009070652F6150892B19F46D3118F004C083
:100E00006C3110F41E2F02C005E010E02051374273
:100E100010F006E016C085E06E2F0E942D02002320
:100E200081F486E060E00E942D0285E060E00E948F
:100E30002D0284E0612F0E942D0283E06F2D0E941D
:100E40002D02009328011F910F91FF900895EF92BA
:100E5000FF920F931F93082F562F4C3318F011E079
:100E6000EE2411C0842F6AE00E94BB07282F30E0D7
:100E7000F4E0220F331FFA95E1F7842F0E94BB079D
:100E8000E92EE22A10E05C3318F012E0FF2410C0D3
:100E9000852F6AE00E94BB07282F30E0E4E0220F94
:100EA000331FEA95E1F7852F0E94BB07F92EF22A3E
:100EB00082E00E94F101382F3076802F6AE00E9494
:100EC000BB07282F802F0E94BB0736FF0AC00D30BA
:100ED00010F013E017C0622F6295607F692B632BBF
:100EE00004C0622F6295607F692B112359F482E060
:100EF0000E942D0281E06F2D0E942D0280E06E2D58
:100F00000E942D02109328011F910F91FF90EF90E6
:100F1000089582E060E60E942D02089582E060E478
:100F20000E942D02089582E060E00E942D02089543
:100F3000EF92FF920F931F93182FF62EE42E222389
:100F400019F482E060E00BC0213059F4002319F459
:100F500082E060E404C0013021F482E060E60E9497
:100F60002D02812F6F2D4E2D0E9427071F910F916B
:100F7000FF90EF900895991B79E004C0991F961790
:100F800008F0961B881F7A95C9F780950895A1E20D
:100F90001A2EAA1BBB1BFD010DC0AA1FBB1FEE1FF3
:100FA000FF1FA217B307E407F50720F0A21BB30B3E
:100FB000E40BF50B661F771F881F991F1A9469F7BA
:100FC00060957095809590959B01AC01BD01CF0116
:060FD0000895F894FFCF24
:100FD6004465627567205374617274656400504D90
:100FE60000414D002C00CE049C044E024E023A02F3
:080FF600E600C800D20014005F
:00000001FF
